
MP3DanceBot.elf:     file format elf32-avr

Sections:
Idx Name          Size      VMA       LMA       File off  Algn
  0 .text         00000612  00000000  00000000  00000074  2**1
                  CONTENTS, ALLOC, LOAD, READONLY, CODE
  1 .data         00000000  00800060  00800060  00000686  2**0
                  CONTENTS, ALLOC, LOAD, DATA
  2 .bss          00000007  00800060  00800060  00000686  2**0
                  ALLOC
  3 .comment      00000030  00000000  00000000  00000686  2**0
                  CONTENTS, READONLY
  4 .note.gnu.avr.deviceinfo 0000003c  00000000  00000000  000006b8  2**2
                  CONTENTS, READONLY
  5 .debug_info   000004b0  00000000  00000000  000006f4  2**0
                  CONTENTS, READONLY, DEBUGGING
  6 .debug_abbrev 00000470  00000000  00000000  00000ba4  2**0
                  CONTENTS, READONLY, DEBUGGING
  7 .debug_line   00000109  00000000  00000000  00001014  2**0
                  CONTENTS, READONLY, DEBUGGING
  8 .debug_str    000001a0  00000000  00000000  0000111d  2**0
                  CONTENTS, READONLY, DEBUGGING

Disassembly of section .text:

00000000 <__vectors>:
   0:	12 c0       	rjmp	.+36     	; 0x26 <__ctors_end>
   2:	21 c0       	rjmp	.+66     	; 0x46 <__bad_interrupt>
   4:	20 c0       	rjmp	.+64     	; 0x46 <__bad_interrupt>
   6:	1f c0       	rjmp	.+62     	; 0x46 <__bad_interrupt>
   8:	1e c0       	rjmp	.+60     	; 0x46 <__bad_interrupt>
   a:	1d c0       	rjmp	.+58     	; 0x46 <__bad_interrupt>
   c:	1c c0       	rjmp	.+56     	; 0x46 <__bad_interrupt>
   e:	1b c0       	rjmp	.+54     	; 0x46 <__bad_interrupt>
  10:	1a c0       	rjmp	.+52     	; 0x46 <__bad_interrupt>
  12:	19 c0       	rjmp	.+50     	; 0x46 <__bad_interrupt>
  14:	18 c0       	rjmp	.+48     	; 0x46 <__bad_interrupt>
  16:	17 c0       	rjmp	.+46     	; 0x46 <__bad_interrupt>
  18:	16 c0       	rjmp	.+44     	; 0x46 <__bad_interrupt>
  1a:	15 c0       	rjmp	.+42     	; 0x46 <__bad_interrupt>
  1c:	14 c0       	rjmp	.+40     	; 0x46 <__bad_interrupt>
  1e:	13 c0       	rjmp	.+38     	; 0x46 <__bad_interrupt>
  20:	8e c0       	rjmp	.+284    	; 0x13e <__vector_16>
  22:	11 c0       	rjmp	.+34     	; 0x46 <__bad_interrupt>
  24:	10 c0       	rjmp	.+32     	; 0x46 <__bad_interrupt>

00000026 <__ctors_end>:
  26:	11 24       	eor	r1, r1
  28:	1f be       	out	0x3f, r1	; 63
  2a:	cf e5       	ldi	r28, 0x5F	; 95
  2c:	d2 e0       	ldi	r29, 0x02	; 2
  2e:	de bf       	out	0x3e, r29	; 62
  30:	cd bf       	out	0x3d, r28	; 61

00000032 <__do_clear_bss>:
  32:	20 e0       	ldi	r18, 0x00	; 0
  34:	a0 e6       	ldi	r26, 0x60	; 96
  36:	b0 e0       	ldi	r27, 0x00	; 0
  38:	01 c0       	rjmp	.+2      	; 0x3c <.do_clear_bss_start>

0000003a <.do_clear_bss_loop>:
  3a:	1d 92       	st	X+, r1

0000003c <.do_clear_bss_start>:
  3c:	a7 36       	cpi	r26, 0x67	; 103
  3e:	b2 07       	cpc	r27, r18
  40:	e1 f7       	brne	.-8      	; 0x3a <.do_clear_bss_loop>
  42:	4f d1       	rcall	.+670    	; 0x2e2 <main>
  44:	e4 c2       	rjmp	.+1480   	; 0x60e <_exit>

00000046 <__bad_interrupt>:
  46:	dc cf       	rjmp	.-72     	; 0x0 <__vectors>

00000048 <GPIO_Init>:
  48:	1b ba       	out	0x1b, r1	; 27
  4a:	8f ee       	ldi	r24, 0xEF	; 239
  4c:	8a bb       	out	0x1a, r24	; 26
  4e:	18 ba       	out	0x18, r1	; 24
  50:	8f e7       	ldi	r24, 0x7F	; 127
  52:	87 bb       	out	0x17, r24	; 23
  54:	08 95       	ret

00000056 <TIMER_Init>:
  56:	85 b3       	in	r24, 0x15	; 21
  58:	80 6e       	ori	r24, 0xE0	; 224
  5a:	85 bb       	out	0x15, r24	; 21
  5c:	ac 98       	cbi	0x15, 4	; 21
  5e:	83 b7       	in	r24, 0x33	; 51
  60:	81 60       	ori	r24, 0x01	; 1
  62:	83 bf       	out	0x33, r24	; 51
  64:	8f b5       	in	r24, 0x2f	; 47
  66:	81 60       	ori	r24, 0x01	; 1
  68:	8f bd       	out	0x2f, r24	; 47
  6a:	89 b7       	in	r24, 0x39	; 57
  6c:	81 60       	ori	r24, 0x01	; 1
  6e:	89 bf       	out	0x39, r24	; 57
  70:	1d bc       	out	0x2d, r1	; 45
  72:	80 b7       	in	r24, 0x30	; 48
  74:	82 68       	ori	r24, 0x82	; 130
  76:	80 bf       	out	0x30, r24	; 48
  78:	1c bc       	out	0x2c, r1	; 44
  7a:	80 b7       	in	r24, 0x30	; 48
  7c:	81 62       	ori	r24, 0x21	; 33
  7e:	80 bf       	out	0x30, r24	; 48
  80:	c0 98       	cbi	0x18, 0	; 24
  82:	c2 9a       	sbi	0x18, 2	; 24
  84:	d8 98       	cbi	0x1b, 0	; 27
  86:	d9 9a       	sbi	0x1b, 1	; 27
  88:	08 95       	ret

0000008a <convDCtoOCR>:
  8a:	68 2f       	mov	r22, r24
  8c:	70 e0       	ldi	r23, 0x00	; 0
  8e:	80 e0       	ldi	r24, 0x00	; 0
  90:	90 e0       	ldi	r25, 0x00	; 0
  92:	c6 d1       	rcall	.+908    	; 0x420 <__floatsisf>
  94:	2d ec       	ldi	r18, 0xCD	; 205
  96:	3c ec       	ldi	r19, 0xCC	; 204
  98:	4c e4       	ldi	r20, 0x4C	; 76
  9a:	5f e3       	ldi	r21, 0x3F	; 63
  9c:	4d d2       	rcall	.+1178   	; 0x538 <__mulsf3>
  9e:	20 e0       	ldi	r18, 0x00	; 0
  a0:	30 e0       	ldi	r19, 0x00	; 0
  a2:	4f e2       	ldi	r20, 0x2F	; 47
  a4:	53 e4       	ldi	r21, 0x43	; 67
  a6:	2a d1       	rcall	.+596    	; 0x2fc <__addsf3>
  a8:	8d d1       	rcall	.+794    	; 0x3c4 <__fixunssfsi>
  aa:	86 2f       	mov	r24, r22
  ac:	08 95       	ret

000000ae <setMotors>:
  ae:	cf 93       	push	r28
  b0:	c6 2f       	mov	r28, r22
  b2:	87 ff       	sbrs	r24, 7
  b4:	03 c0       	rjmp	.+6      	; 0xbc <setMotors+0xe>
  b6:	d9 98       	cbi	0x1b, 1	; 27
  b8:	d8 9a       	sbi	0x1b, 0	; 27
  ba:	02 c0       	rjmp	.+4      	; 0xc0 <setMotors+0x12>
  bc:	d8 98       	cbi	0x1b, 0	; 27
  be:	d9 9a       	sbi	0x1b, 1	; 27
  c0:	8f 77       	andi	r24, 0x7F	; 127
  c2:	11 f0       	breq	.+4      	; 0xc8 <setMotors+0x1a>
  c4:	e2 df       	rcall	.-60     	; 0x8a <convDCtoOCR>
  c6:	01 c0       	rjmp	.+2      	; 0xca <setMotors+0x1c>
  c8:	80 e0       	ldi	r24, 0x00	; 0
  ca:	8c bd       	out	0x2c, r24	; 44
  cc:	c7 ff       	sbrs	r28, 7
  ce:	03 c0       	rjmp	.+6      	; 0xd6 <setMotors+0x28>
  d0:	c2 98       	cbi	0x18, 2	; 24
  d2:	c0 9a       	sbi	0x18, 0	; 24
  d4:	02 c0       	rjmp	.+4      	; 0xda <setMotors+0x2c>
  d6:	c0 98       	cbi	0x18, 0	; 24
  d8:	c2 9a       	sbi	0x18, 2	; 24
  da:	8c 2f       	mov	r24, r28
  dc:	8f 77       	andi	r24, 0x7F	; 127
  de:	11 f0       	breq	.+4      	; 0xe4 <setMotors+0x36>
  e0:	d4 df       	rcall	.-88     	; 0x8a <convDCtoOCR>
  e2:	01 c0       	rjmp	.+2      	; 0xe6 <setMotors+0x38>
  e4:	80 e0       	ldi	r24, 0x00	; 0
  e6:	8d bd       	out	0x2d, r24	; 45
  e8:	cf 91       	pop	r28
  ea:	08 95       	ret

000000ec <setLED>:
  ec:	80 ff       	sbrs	r24, 0
  ee:	02 c0       	rjmp	.+4      	; 0xf4 <setLED+0x8>
  f0:	da 9a       	sbi	0x1b, 2	; 27
  f2:	01 c0       	rjmp	.+2      	; 0xf6 <setLED+0xa>
  f4:	da 98       	cbi	0x1b, 2	; 27
  f6:	81 ff       	sbrs	r24, 1
  f8:	02 c0       	rjmp	.+4      	; 0xfe <setLED+0x12>
  fa:	db 9a       	sbi	0x1b, 3	; 27
  fc:	01 c0       	rjmp	.+2      	; 0x100 <setLED+0x14>
  fe:	db 98       	cbi	0x1b, 3	; 27
 100:	82 ff       	sbrs	r24, 2
 102:	02 c0       	rjmp	.+4      	; 0x108 <setLED+0x1c>
 104:	dd 9a       	sbi	0x1b, 5	; 27
 106:	01 c0       	rjmp	.+2      	; 0x10a <setLED+0x1e>
 108:	dd 98       	cbi	0x1b, 5	; 27
 10a:	83 ff       	sbrs	r24, 3
 10c:	02 c0       	rjmp	.+4      	; 0x112 <setLED+0x26>
 10e:	de 9a       	sbi	0x1b, 6	; 27
 110:	01 c0       	rjmp	.+2      	; 0x114 <setLED+0x28>
 112:	de 98       	cbi	0x1b, 6	; 27
 114:	84 ff       	sbrs	r24, 4
 116:	02 c0       	rjmp	.+4      	; 0x11c <setLED+0x30>
 118:	c4 9a       	sbi	0x18, 4	; 24
 11a:	01 c0       	rjmp	.+2      	; 0x11e <setLED+0x32>
 11c:	c4 98       	cbi	0x18, 4	; 24
 11e:	85 ff       	sbrs	r24, 5
 120:	02 c0       	rjmp	.+4      	; 0x126 <setLED+0x3a>
 122:	c6 9a       	sbi	0x18, 6	; 24
 124:	01 c0       	rjmp	.+2      	; 0x128 <setLED+0x3c>
 126:	c6 98       	cbi	0x18, 6	; 24
 128:	86 ff       	sbrs	r24, 6
 12a:	02 c0       	rjmp	.+4      	; 0x130 <setLED+0x44>
 12c:	df 9a       	sbi	0x1b, 7	; 27
 12e:	01 c0       	rjmp	.+2      	; 0x132 <setLED+0x46>
 130:	df 98       	cbi	0x1b, 7	; 27
 132:	87 ff       	sbrs	r24, 7
 134:	02 c0       	rjmp	.+4      	; 0x13a <setLED+0x4e>
 136:	c5 9a       	sbi	0x18, 5	; 24
 138:	08 95       	ret
 13a:	c5 98       	cbi	0x18, 5	; 24
 13c:	08 95       	ret

0000013e <__vector_16>:
 13e:	1f 92       	push	r1
 140:	0f 92       	push	r0
 142:	0f b6       	in	r0, 0x3f	; 63
 144:	0f 92       	push	r0
 146:	11 24       	eor	r1, r1
 148:	2f 93       	push	r18
 14a:	3f 93       	push	r19
 14c:	4f 93       	push	r20
 14e:	5f 93       	push	r21
 150:	6f 93       	push	r22
 152:	7f 93       	push	r23
 154:	8f 93       	push	r24
 156:	9f 93       	push	r25
 158:	af 93       	push	r26
 15a:	bf 93       	push	r27
 15c:	ef 93       	push	r30
 15e:	ff 93       	push	r31
 160:	ac 9b       	sbis	0x15, 4	; 21
 162:	02 c0       	rjmp	.+4      	; 0x168 <__vector_16+0x2a>
 164:	ac 98       	cbi	0x15, 4	; 21
 166:	01 c0       	rjmp	.+2      	; 0x16a <__vector_16+0x2c>
 168:	ac 9a       	sbi	0x15, 4	; 21
 16a:	83 b3       	in	r24, 0x13	; 19
 16c:	22 b3       	in	r18, 0x12	; 18
 16e:	90 e0       	ldi	r25, 0x00	; 0
 170:	92 2b       	or	r25, r18
 172:	20 91 65 00 	lds	r18, 0x0065	; 0x800065 <t0.1642>
 176:	30 91 66 00 	lds	r19, 0x0066	; 0x800066 <t0.1642+0x1>
 17a:	bc 01       	movw	r22, r24
 17c:	62 1b       	sub	r22, r18
 17e:	73 0b       	sbc	r23, r19
 180:	90 93 66 00 	sts	0x0066, r25	; 0x800066 <t0.1642+0x1>
 184:	80 93 65 00 	sts	0x0065, r24	; 0x800065 <t0.1642>
 188:	6e 3a       	cpi	r22, 0xAE	; 174
 18a:	26 e1       	ldi	r18, 0x16	; 22
 18c:	72 07       	cpc	r23, r18
 18e:	58 f0       	brcs	.+22     	; 0x1a6 <__vector_16+0x68>
 190:	10 92 64 00 	sts	0x0064, r1	; 0x800064 <bitCnt.1638>
 194:	10 92 63 00 	sts	0x0063, r1	; 0x800063 <msgML.1639>
 198:	10 92 62 00 	sts	0x0062, r1	; 0x800062 <msgMR.1640>
 19c:	10 92 61 00 	sts	0x0061, r1	; 0x800061 <msgLED.1641>
 1a0:	10 92 60 00 	sts	0x0060, r1	; 0x800060 <_edata>
 1a4:	8d c0       	rjmp	.+282    	; 0x2c0 <__stack+0x61>
 1a6:	6d 3a       	cpi	r22, 0xAD	; 173
 1a8:	36 e1       	ldi	r19, 0x16	; 22
 1aa:	73 07       	cpc	r23, r19
 1ac:	09 f4       	brne	.+2      	; 0x1b0 <__vector_16+0x72>
 1ae:	88 c0       	rjmp	.+272    	; 0x2c0 <__stack+0x61>
 1b0:	80 91 64 00 	lds	r24, 0x0064	; 0x800064 <bitCnt.1638>
 1b4:	88 31       	cpi	r24, 0x18	; 24
 1b6:	08 f0       	brcs	.+2      	; 0x1ba <__vector_16+0x7c>
 1b8:	83 c0       	rjmp	.+262    	; 0x2c0 <__stack+0x61>
 1ba:	90 91 60 00 	lds	r25, 0x0060	; 0x800060 <_edata>
 1be:	91 30       	cpi	r25, 0x01	; 1
 1c0:	41 f1       	breq	.+80     	; 0x212 <__vector_16+0xd4>
 1c2:	20 f0       	brcs	.+8      	; 0x1cc <__vector_16+0x8e>
 1c4:	92 30       	cpi	r25, 0x02	; 2
 1c6:	09 f4       	brne	.+2      	; 0x1ca <__vector_16+0x8c>
 1c8:	4d c0       	rjmp	.+154    	; 0x264 <__stack+0x5>
 1ca:	7a c0       	rjmp	.+244    	; 0x2c0 <__stack+0x61>
 1cc:	90 91 63 00 	lds	r25, 0x0063	; 0x800063 <msgML.1639>
 1d0:	68 32       	cpi	r22, 0x28	; 40
 1d2:	7d 40       	sbci	r23, 0x0D	; 13
 1d4:	58 f0       	brcs	.+22     	; 0x1ec <__vector_16+0xae>
 1d6:	41 e0       	ldi	r20, 0x01	; 1
 1d8:	50 e0       	ldi	r21, 0x00	; 0
 1da:	08 2e       	mov	r0, r24
 1dc:	01 c0       	rjmp	.+2      	; 0x1e0 <__vector_16+0xa2>
 1de:	44 0f       	add	r20, r20
 1e0:	0a 94       	dec	r0
 1e2:	ea f7       	brpl	.-6      	; 0x1de <__vector_16+0xa0>
 1e4:	49 2b       	or	r20, r25
 1e6:	40 93 63 00 	sts	0x0063, r20	; 0x800063 <msgML.1639>
 1ea:	0b c0       	rjmp	.+22     	; 0x202 <__vector_16+0xc4>
 1ec:	21 e0       	ldi	r18, 0x01	; 1
 1ee:	30 e0       	ldi	r19, 0x00	; 0
 1f0:	08 2e       	mov	r0, r24
 1f2:	01 c0       	rjmp	.+2      	; 0x1f6 <__vector_16+0xb8>
 1f4:	22 0f       	add	r18, r18
 1f6:	0a 94       	dec	r0
 1f8:	ea f7       	brpl	.-6      	; 0x1f4 <__vector_16+0xb6>
 1fa:	20 95       	com	r18
 1fc:	29 23       	and	r18, r25
 1fe:	20 93 63 00 	sts	0x0063, r18	; 0x800063 <msgML.1639>
 202:	8f 5f       	subi	r24, 0xFF	; 255
 204:	80 93 64 00 	sts	0x0064, r24	; 0x800064 <bitCnt.1638>
 208:	88 30       	cpi	r24, 0x08	; 8
 20a:	08 f4       	brcc	.+2      	; 0x20e <__vector_16+0xd0>
 20c:	59 c0       	rjmp	.+178    	; 0x2c0 <__stack+0x61>
 20e:	81 e0       	ldi	r24, 0x01	; 1
 210:	26 c0       	rjmp	.+76     	; 0x25e <__vector_16+0x120>
 212:	48 2f       	mov	r20, r24
 214:	50 e0       	ldi	r21, 0x00	; 0
 216:	90 91 62 00 	lds	r25, 0x0062	; 0x800062 <msgMR.1640>
 21a:	48 50       	subi	r20, 0x08	; 8
 21c:	51 09       	sbc	r21, r1
 21e:	68 32       	cpi	r22, 0x28	; 40
 220:	7d 40       	sbci	r23, 0x0D	; 13
 222:	68 f0       	brcs	.+26     	; 0x23e <__vector_16+0x100>
 224:	61 e0       	ldi	r22, 0x01	; 1
 226:	70 e0       	ldi	r23, 0x00	; 0
 228:	9b 01       	movw	r18, r22
 22a:	02 c0       	rjmp	.+4      	; 0x230 <__vector_16+0xf2>
 22c:	22 0f       	add	r18, r18
 22e:	33 1f       	adc	r19, r19
 230:	4a 95       	dec	r20
 232:	e2 f7       	brpl	.-8      	; 0x22c <__vector_16+0xee>
 234:	a9 01       	movw	r20, r18
 236:	49 2b       	or	r20, r25
 238:	40 93 62 00 	sts	0x0062, r20	; 0x800062 <msgMR.1640>
 23c:	0a c0       	rjmp	.+20     	; 0x252 <__vector_16+0x114>
 23e:	21 e0       	ldi	r18, 0x01	; 1
 240:	30 e0       	ldi	r19, 0x00	; 0
 242:	01 c0       	rjmp	.+2      	; 0x246 <__vector_16+0x108>
 244:	22 0f       	add	r18, r18
 246:	4a 95       	dec	r20
 248:	ea f7       	brpl	.-6      	; 0x244 <__vector_16+0x106>
 24a:	20 95       	com	r18
 24c:	29 23       	and	r18, r25
 24e:	20 93 62 00 	sts	0x0062, r18	; 0x800062 <msgMR.1640>
 252:	8f 5f       	subi	r24, 0xFF	; 255
 254:	80 93 64 00 	sts	0x0064, r24	; 0x800064 <bitCnt.1638>
 258:	80 31       	cpi	r24, 0x10	; 16
 25a:	90 f1       	brcs	.+100    	; 0x2c0 <__stack+0x61>
 25c:	82 e0       	ldi	r24, 0x02	; 2
 25e:	80 93 60 00 	sts	0x0060, r24	; 0x800060 <_edata>
 262:	2e c0       	rjmp	.+92     	; 0x2c0 <__stack+0x61>
 264:	48 2f       	mov	r20, r24
 266:	50 e0       	ldi	r21, 0x00	; 0
 268:	90 91 61 00 	lds	r25, 0x0061	; 0x800061 <msgLED.1641>
 26c:	40 51       	subi	r20, 0x10	; 16
 26e:	51 09       	sbc	r21, r1
 270:	68 32       	cpi	r22, 0x28	; 40
 272:	7d 40       	sbci	r23, 0x0D	; 13
 274:	68 f0       	brcs	.+26     	; 0x290 <__stack+0x31>
 276:	61 e0       	ldi	r22, 0x01	; 1
 278:	70 e0       	ldi	r23, 0x00	; 0
 27a:	9b 01       	movw	r18, r22
 27c:	02 c0       	rjmp	.+4      	; 0x282 <__stack+0x23>
 27e:	22 0f       	add	r18, r18
 280:	33 1f       	adc	r19, r19
 282:	4a 95       	dec	r20
 284:	e2 f7       	brpl	.-8      	; 0x27e <__stack+0x1f>
 286:	a9 01       	movw	r20, r18
 288:	49 2b       	or	r20, r25
 28a:	40 93 61 00 	sts	0x0061, r20	; 0x800061 <msgLED.1641>
 28e:	0a c0       	rjmp	.+20     	; 0x2a4 <__stack+0x45>
 290:	21 e0       	ldi	r18, 0x01	; 1
 292:	30 e0       	ldi	r19, 0x00	; 0
 294:	01 c0       	rjmp	.+2      	; 0x298 <__stack+0x39>
 296:	22 0f       	add	r18, r18
 298:	4a 95       	dec	r20
 29a:	ea f7       	brpl	.-6      	; 0x296 <__stack+0x37>
 29c:	20 95       	com	r18
 29e:	29 23       	and	r18, r25
 2a0:	20 93 61 00 	sts	0x0061, r18	; 0x800061 <msgLED.1641>
 2a4:	8f 5f       	subi	r24, 0xFF	; 255
 2a6:	80 93 64 00 	sts	0x0064, r24	; 0x800064 <bitCnt.1638>
 2aa:	88 31       	cpi	r24, 0x18	; 24
 2ac:	49 f4       	brne	.+18     	; 0x2c0 <__stack+0x61>
 2ae:	80 91 61 00 	lds	r24, 0x0061	; 0x800061 <msgLED.1641>
 2b2:	1c df       	rcall	.-456    	; 0xec <setLED>
 2b4:	60 91 62 00 	lds	r22, 0x0062	; 0x800062 <msgMR.1640>
 2b8:	80 91 63 00 	lds	r24, 0x0063	; 0x800063 <msgML.1639>
 2bc:	f8 de       	rcall	.-528    	; 0xae <setMotors>
 2be:	a8 95       	wdr
 2c0:	ff 91       	pop	r31
 2c2:	ef 91       	pop	r30
 2c4:	bf 91       	pop	r27
 2c6:	af 91       	pop	r26
 2c8:	9f 91       	pop	r25
 2ca:	8f 91       	pop	r24
 2cc:	7f 91       	pop	r23
 2ce:	6f 91       	pop	r22
 2d0:	5f 91       	pop	r21
 2d2:	4f 91       	pop	r20
 2d4:	3f 91       	pop	r19
 2d6:	2f 91       	pop	r18
 2d8:	0f 90       	pop	r0
 2da:	0f be       	out	0x3f, r0	; 63
 2dc:	0f 90       	pop	r0
 2de:	1f 90       	pop	r1
 2e0:	18 95       	reti

000002e2 <main>:
 2e2:	b2 de       	rcall	.-668    	; 0x48 <GPIO_Init>
 2e4:	b8 de       	rcall	.-656    	; 0x56 <TIMER_Init>
 2e6:	9d e0       	ldi	r25, 0x0D	; 13
 2e8:	88 e1       	ldi	r24, 0x18	; 24
 2ea:	0f b6       	in	r0, 0x3f	; 63
 2ec:	f8 94       	cli
 2ee:	a8 95       	wdr
 2f0:	81 bd       	out	0x21, r24	; 33
 2f2:	0f be       	out	0x3f, r0	; 63
 2f4:	91 bd       	out	0x21, r25	; 33
 2f6:	78 94       	sei
 2f8:	ff cf       	rjmp	.-2      	; 0x2f8 <main+0x16>

000002fa <__subsf3>:
 2fa:	50 58       	subi	r21, 0x80	; 128

000002fc <__addsf3>:
 2fc:	bb 27       	eor	r27, r27
 2fe:	aa 27       	eor	r26, r26
 300:	0e d0       	rcall	.+28     	; 0x31e <__addsf3x>
 302:	e0 c0       	rjmp	.+448    	; 0x4c4 <__fp_round>
 304:	d1 d0       	rcall	.+418    	; 0x4a8 <__fp_pscA>
 306:	30 f0       	brcs	.+12     	; 0x314 <__addsf3+0x18>
 308:	d6 d0       	rcall	.+428    	; 0x4b6 <__fp_pscB>
 30a:	20 f0       	brcs	.+8      	; 0x314 <__addsf3+0x18>
 30c:	31 f4       	brne	.+12     	; 0x31a <__addsf3+0x1e>
 30e:	9f 3f       	cpi	r25, 0xFF	; 255
 310:	11 f4       	brne	.+4      	; 0x316 <__addsf3+0x1a>
 312:	1e f4       	brtc	.+6      	; 0x31a <__addsf3+0x1e>
 314:	c6 c0       	rjmp	.+396    	; 0x4a2 <__fp_nan>
 316:	0e f4       	brtc	.+2      	; 0x31a <__addsf3+0x1e>
 318:	e0 95       	com	r30
 31a:	e7 fb       	bst	r30, 7
 31c:	bc c0       	rjmp	.+376    	; 0x496 <__fp_inf>

0000031e <__addsf3x>:
 31e:	e9 2f       	mov	r30, r25
 320:	e2 d0       	rcall	.+452    	; 0x4e6 <__fp_split3>
 322:	80 f3       	brcs	.-32     	; 0x304 <__addsf3+0x8>
 324:	ba 17       	cp	r27, r26
 326:	62 07       	cpc	r22, r18
 328:	73 07       	cpc	r23, r19
 32a:	84 07       	cpc	r24, r20
 32c:	95 07       	cpc	r25, r21
 32e:	18 f0       	brcs	.+6      	; 0x336 <__addsf3x+0x18>
 330:	71 f4       	brne	.+28     	; 0x34e <__addsf3x+0x30>
 332:	9e f5       	brtc	.+102    	; 0x39a <__addsf3x+0x7c>
 334:	fa c0       	rjmp	.+500    	; 0x52a <__fp_zero>
 336:	0e f4       	brtc	.+2      	; 0x33a <__addsf3x+0x1c>
 338:	e0 95       	com	r30
 33a:	0b 2e       	mov	r0, r27
 33c:	ba 2f       	mov	r27, r26
 33e:	a0 2d       	mov	r26, r0
 340:	0b 01       	movw	r0, r22
 342:	b9 01       	movw	r22, r18
 344:	90 01       	movw	r18, r0
 346:	0c 01       	movw	r0, r24
 348:	ca 01       	movw	r24, r20
 34a:	a0 01       	movw	r20, r0
 34c:	11 24       	eor	r1, r1
 34e:	ff 27       	eor	r31, r31
 350:	59 1b       	sub	r21, r25
 352:	99 f0       	breq	.+38     	; 0x37a <__addsf3x+0x5c>
 354:	59 3f       	cpi	r21, 0xF9	; 249
 356:	50 f4       	brcc	.+20     	; 0x36c <__addsf3x+0x4e>
 358:	50 3e       	cpi	r21, 0xE0	; 224
 35a:	68 f1       	brcs	.+90     	; 0x3b6 <__addsf3x+0x98>
 35c:	1a 16       	cp	r1, r26
 35e:	f0 40       	sbci	r31, 0x00	; 0
 360:	a2 2f       	mov	r26, r18
 362:	23 2f       	mov	r18, r19
 364:	34 2f       	mov	r19, r20
 366:	44 27       	eor	r20, r20
 368:	58 5f       	subi	r21, 0xF8	; 248
 36a:	f3 cf       	rjmp	.-26     	; 0x352 <__addsf3x+0x34>
 36c:	46 95       	lsr	r20
 36e:	37 95       	ror	r19
 370:	27 95       	ror	r18
 372:	a7 95       	ror	r26
 374:	f0 40       	sbci	r31, 0x00	; 0
 376:	53 95       	inc	r21
 378:	c9 f7       	brne	.-14     	; 0x36c <__addsf3x+0x4e>
 37a:	7e f4       	brtc	.+30     	; 0x39a <__addsf3x+0x7c>
 37c:	1f 16       	cp	r1, r31
 37e:	ba 0b       	sbc	r27, r26
 380:	62 0b       	sbc	r22, r18
 382:	73 0b       	sbc	r23, r19
 384:	84 0b       	sbc	r24, r20
 386:	ba f0       	brmi	.+46     	; 0x3b6 <__addsf3x+0x98>
 388:	91 50       	subi	r25, 0x01	; 1
 38a:	a1 f0       	breq	.+40     	; 0x3b4 <__addsf3x+0x96>
 38c:	ff 0f       	add	r31, r31
 38e:	bb 1f       	adc	r27, r27
 390:	66 1f       	adc	r22, r22
 392:	77 1f       	adc	r23, r23
 394:	88 1f       	adc	r24, r24
 396:	c2 f7       	brpl	.-16     	; 0x388 <__addsf3x+0x6a>
 398:	0e c0       	rjmp	.+28     	; 0x3b6 <__addsf3x+0x98>
 39a:	ba 0f       	add	r27, r26
 39c:	62 1f       	adc	r22, r18
 39e:	73 1f       	adc	r23, r19
 3a0:	84 1f       	adc	r24, r20
 3a2:	48 f4       	brcc	.+18     	; 0x3b6 <__addsf3x+0x98>
 3a4:	87 95       	ror	r24
 3a6:	77 95       	ror	r23
 3a8:	67 95       	ror	r22
 3aa:	b7 95       	ror	r27
 3ac:	f7 95       	ror	r31
 3ae:	9e 3f       	cpi	r25, 0xFE	; 254
 3b0:	08 f0       	brcs	.+2      	; 0x3b4 <__addsf3x+0x96>
 3b2:	b3 cf       	rjmp	.-154    	; 0x31a <__addsf3+0x1e>
 3b4:	93 95       	inc	r25
 3b6:	88 0f       	add	r24, r24
 3b8:	08 f0       	brcs	.+2      	; 0x3bc <__addsf3x+0x9e>
 3ba:	99 27       	eor	r25, r25
 3bc:	ee 0f       	add	r30, r30
 3be:	97 95       	ror	r25
 3c0:	87 95       	ror	r24
 3c2:	08 95       	ret

000003c4 <__fixunssfsi>:
 3c4:	98 d0       	rcall	.+304    	; 0x4f6 <__fp_splitA>
 3c6:	88 f0       	brcs	.+34     	; 0x3ea <__fixunssfsi+0x26>
 3c8:	9f 57       	subi	r25, 0x7F	; 127
 3ca:	90 f0       	brcs	.+36     	; 0x3f0 <__fixunssfsi+0x2c>
 3cc:	b9 2f       	mov	r27, r25
 3ce:	99 27       	eor	r25, r25
 3d0:	b7 51       	subi	r27, 0x17	; 23
 3d2:	a0 f0       	brcs	.+40     	; 0x3fc <__fixunssfsi+0x38>
 3d4:	d1 f0       	breq	.+52     	; 0x40a <__LOCK_REGION_LENGTH__+0xa>
 3d6:	66 0f       	add	r22, r22
 3d8:	77 1f       	adc	r23, r23
 3da:	88 1f       	adc	r24, r24
 3dc:	99 1f       	adc	r25, r25
 3de:	1a f0       	brmi	.+6      	; 0x3e6 <__fixunssfsi+0x22>
 3e0:	ba 95       	dec	r27
 3e2:	c9 f7       	brne	.-14     	; 0x3d6 <__fixunssfsi+0x12>
 3e4:	12 c0       	rjmp	.+36     	; 0x40a <__LOCK_REGION_LENGTH__+0xa>
 3e6:	b1 30       	cpi	r27, 0x01	; 1
 3e8:	81 f0       	breq	.+32     	; 0x40a <__LOCK_REGION_LENGTH__+0xa>
 3ea:	9f d0       	rcall	.+318    	; 0x52a <__fp_zero>
 3ec:	b1 e0       	ldi	r27, 0x01	; 1
 3ee:	08 95       	ret
 3f0:	9c c0       	rjmp	.+312    	; 0x52a <__fp_zero>
 3f2:	67 2f       	mov	r22, r23
 3f4:	78 2f       	mov	r23, r24
 3f6:	88 27       	eor	r24, r24
 3f8:	b8 5f       	subi	r27, 0xF8	; 248
 3fa:	39 f0       	breq	.+14     	; 0x40a <__LOCK_REGION_LENGTH__+0xa>
 3fc:	b9 3f       	cpi	r27, 0xF9	; 249
 3fe:	cc f3       	brlt	.-14     	; 0x3f2 <__fixunssfsi+0x2e>
 400:	86 95       	lsr	r24
 402:	77 95       	ror	r23
 404:	67 95       	ror	r22
 406:	b3 95       	inc	r27
 408:	d9 f7       	brne	.-10     	; 0x400 <__LOCK_REGION_LENGTH__>
 40a:	3e f4       	brtc	.+14     	; 0x41a <__LOCK_REGION_LENGTH__+0x1a>
 40c:	90 95       	com	r25
 40e:	80 95       	com	r24
 410:	70 95       	com	r23
 412:	61 95       	neg	r22
 414:	7f 4f       	sbci	r23, 0xFF	; 255
 416:	8f 4f       	sbci	r24, 0xFF	; 255
 418:	9f 4f       	sbci	r25, 0xFF	; 255
 41a:	08 95       	ret

0000041c <__floatunsisf>:
 41c:	e8 94       	clt
 41e:	09 c0       	rjmp	.+18     	; 0x432 <__floatsisf+0x12>

00000420 <__floatsisf>:
 420:	97 fb       	bst	r25, 7
 422:	3e f4       	brtc	.+14     	; 0x432 <__floatsisf+0x12>
 424:	90 95       	com	r25
 426:	80 95       	com	r24
 428:	70 95       	com	r23
 42a:	61 95       	neg	r22
 42c:	7f 4f       	sbci	r23, 0xFF	; 255
 42e:	8f 4f       	sbci	r24, 0xFF	; 255
 430:	9f 4f       	sbci	r25, 0xFF	; 255
 432:	99 23       	and	r25, r25
 434:	a9 f0       	breq	.+42     	; 0x460 <__floatsisf+0x40>
 436:	f9 2f       	mov	r31, r25
 438:	96 e9       	ldi	r25, 0x96	; 150
 43a:	bb 27       	eor	r27, r27
 43c:	93 95       	inc	r25
 43e:	f6 95       	lsr	r31
 440:	87 95       	ror	r24
 442:	77 95       	ror	r23
 444:	67 95       	ror	r22
 446:	b7 95       	ror	r27
 448:	f1 11       	cpse	r31, r1
 44a:	f8 cf       	rjmp	.-16     	; 0x43c <__floatsisf+0x1c>
 44c:	fa f4       	brpl	.+62     	; 0x48c <__floatsisf+0x6c>
 44e:	bb 0f       	add	r27, r27
 450:	11 f4       	brne	.+4      	; 0x456 <__floatsisf+0x36>
 452:	60 ff       	sbrs	r22, 0
 454:	1b c0       	rjmp	.+54     	; 0x48c <__floatsisf+0x6c>
 456:	6f 5f       	subi	r22, 0xFF	; 255
 458:	7f 4f       	sbci	r23, 0xFF	; 255
 45a:	8f 4f       	sbci	r24, 0xFF	; 255
 45c:	9f 4f       	sbci	r25, 0xFF	; 255
 45e:	16 c0       	rjmp	.+44     	; 0x48c <__floatsisf+0x6c>
 460:	88 23       	and	r24, r24
 462:	11 f0       	breq	.+4      	; 0x468 <__floatsisf+0x48>
 464:	96 e9       	ldi	r25, 0x96	; 150
 466:	11 c0       	rjmp	.+34     	; 0x48a <__floatsisf+0x6a>
 468:	77 23       	and	r23, r23
 46a:	21 f0       	breq	.+8      	; 0x474 <__floatsisf+0x54>
 46c:	9e e8       	ldi	r25, 0x8E	; 142
 46e:	87 2f       	mov	r24, r23
 470:	76 2f       	mov	r23, r22
 472:	05 c0       	rjmp	.+10     	; 0x47e <__floatsisf+0x5e>
 474:	66 23       	and	r22, r22
 476:	71 f0       	breq	.+28     	; 0x494 <__floatsisf+0x74>
 478:	96 e8       	ldi	r25, 0x86	; 134
 47a:	86 2f       	mov	r24, r22
 47c:	70 e0       	ldi	r23, 0x00	; 0
 47e:	60 e0       	ldi	r22, 0x00	; 0
 480:	2a f0       	brmi	.+10     	; 0x48c <__floatsisf+0x6c>
 482:	9a 95       	dec	r25
 484:	66 0f       	add	r22, r22
 486:	77 1f       	adc	r23, r23
 488:	88 1f       	adc	r24, r24
 48a:	da f7       	brpl	.-10     	; 0x482 <__floatsisf+0x62>
 48c:	88 0f       	add	r24, r24
 48e:	96 95       	lsr	r25
 490:	87 95       	ror	r24
 492:	97 f9       	bld	r25, 7
 494:	08 95       	ret

00000496 <__fp_inf>:
 496:	97 f9       	bld	r25, 7
 498:	9f 67       	ori	r25, 0x7F	; 127
 49a:	80 e8       	ldi	r24, 0x80	; 128
 49c:	70 e0       	ldi	r23, 0x00	; 0
 49e:	60 e0       	ldi	r22, 0x00	; 0
 4a0:	08 95       	ret

000004a2 <__fp_nan>:
 4a2:	9f ef       	ldi	r25, 0xFF	; 255
 4a4:	80 ec       	ldi	r24, 0xC0	; 192
 4a6:	08 95       	ret

000004a8 <__fp_pscA>:
 4a8:	00 24       	eor	r0, r0
 4aa:	0a 94       	dec	r0
 4ac:	16 16       	cp	r1, r22
 4ae:	17 06       	cpc	r1, r23
 4b0:	18 06       	cpc	r1, r24
 4b2:	09 06       	cpc	r0, r25
 4b4:	08 95       	ret

000004b6 <__fp_pscB>:
 4b6:	00 24       	eor	r0, r0
 4b8:	0a 94       	dec	r0
 4ba:	12 16       	cp	r1, r18
 4bc:	13 06       	cpc	r1, r19
 4be:	14 06       	cpc	r1, r20
 4c0:	05 06       	cpc	r0, r21
 4c2:	08 95       	ret

000004c4 <__fp_round>:
 4c4:	09 2e       	mov	r0, r25
 4c6:	03 94       	inc	r0
 4c8:	00 0c       	add	r0, r0
 4ca:	11 f4       	brne	.+4      	; 0x4d0 <__fp_round+0xc>
 4cc:	88 23       	and	r24, r24
 4ce:	52 f0       	brmi	.+20     	; 0x4e4 <__fp_round+0x20>
 4d0:	bb 0f       	add	r27, r27
 4d2:	40 f4       	brcc	.+16     	; 0x4e4 <__fp_round+0x20>
 4d4:	bf 2b       	or	r27, r31
 4d6:	11 f4       	brne	.+4      	; 0x4dc <__fp_round+0x18>
 4d8:	60 ff       	sbrs	r22, 0
 4da:	04 c0       	rjmp	.+8      	; 0x4e4 <__fp_round+0x20>
 4dc:	6f 5f       	subi	r22, 0xFF	; 255
 4de:	7f 4f       	sbci	r23, 0xFF	; 255
 4e0:	8f 4f       	sbci	r24, 0xFF	; 255
 4e2:	9f 4f       	sbci	r25, 0xFF	; 255
 4e4:	08 95       	ret

000004e6 <__fp_split3>:
 4e6:	57 fd       	sbrc	r21, 7
 4e8:	90 58       	subi	r25, 0x80	; 128
 4ea:	44 0f       	add	r20, r20
 4ec:	55 1f       	adc	r21, r21
 4ee:	59 f0       	breq	.+22     	; 0x506 <__fp_splitA+0x10>
 4f0:	5f 3f       	cpi	r21, 0xFF	; 255
 4f2:	71 f0       	breq	.+28     	; 0x510 <__fp_splitA+0x1a>
 4f4:	47 95       	ror	r20

000004f6 <__fp_splitA>:
 4f6:	88 0f       	add	r24, r24
 4f8:	97 fb       	bst	r25, 7
 4fa:	99 1f       	adc	r25, r25
 4fc:	61 f0       	breq	.+24     	; 0x516 <__fp_splitA+0x20>
 4fe:	9f 3f       	cpi	r25, 0xFF	; 255
 500:	79 f0       	breq	.+30     	; 0x520 <__fp_splitA+0x2a>
 502:	87 95       	ror	r24
 504:	08 95       	ret
 506:	12 16       	cp	r1, r18
 508:	13 06       	cpc	r1, r19
 50a:	14 06       	cpc	r1, r20
 50c:	55 1f       	adc	r21, r21
 50e:	f2 cf       	rjmp	.-28     	; 0x4f4 <__fp_split3+0xe>
 510:	46 95       	lsr	r20
 512:	f1 df       	rcall	.-30     	; 0x4f6 <__fp_splitA>
 514:	08 c0       	rjmp	.+16     	; 0x526 <__fp_splitA+0x30>
 516:	16 16       	cp	r1, r22
 518:	17 06       	cpc	r1, r23
 51a:	18 06       	cpc	r1, r24
 51c:	99 1f       	adc	r25, r25
 51e:	f1 cf       	rjmp	.-30     	; 0x502 <__fp_splitA+0xc>
 520:	86 95       	lsr	r24
 522:	71 05       	cpc	r23, r1
 524:	61 05       	cpc	r22, r1
 526:	08 94       	sec
 528:	08 95       	ret

0000052a <__fp_zero>:
 52a:	e8 94       	clt

0000052c <__fp_szero>:
 52c:	bb 27       	eor	r27, r27
 52e:	66 27       	eor	r22, r22
 530:	77 27       	eor	r23, r23
 532:	cb 01       	movw	r24, r22
 534:	97 f9       	bld	r25, 7
 536:	08 95       	ret

00000538 <__mulsf3>:
 538:	0a d0       	rcall	.+20     	; 0x54e <__mulsf3x>
 53a:	c4 cf       	rjmp	.-120    	; 0x4c4 <__fp_round>
 53c:	b5 df       	rcall	.-150    	; 0x4a8 <__fp_pscA>
 53e:	28 f0       	brcs	.+10     	; 0x54a <__mulsf3+0x12>
 540:	ba df       	rcall	.-140    	; 0x4b6 <__fp_pscB>
 542:	18 f0       	brcs	.+6      	; 0x54a <__mulsf3+0x12>
 544:	95 23       	and	r25, r21
 546:	09 f0       	breq	.+2      	; 0x54a <__mulsf3+0x12>
 548:	a6 cf       	rjmp	.-180    	; 0x496 <__fp_inf>
 54a:	ab cf       	rjmp	.-170    	; 0x4a2 <__fp_nan>
 54c:	ef cf       	rjmp	.-34     	; 0x52c <__fp_szero>

0000054e <__mulsf3x>:
 54e:	cb df       	rcall	.-106    	; 0x4e6 <__fp_split3>
 550:	a8 f3       	brcs	.-22     	; 0x53c <__mulsf3+0x4>

00000552 <__mulsf3_pse>:
 552:	99 23       	and	r25, r25
 554:	d9 f3       	breq	.-10     	; 0x54c <__mulsf3+0x14>
 556:	55 23       	and	r21, r21
 558:	c9 f3       	breq	.-14     	; 0x54c <__mulsf3+0x14>
 55a:	95 0f       	add	r25, r21
 55c:	50 e0       	ldi	r21, 0x00	; 0
 55e:	55 1f       	adc	r21, r21
 560:	aa 27       	eor	r26, r26
 562:	ee 27       	eor	r30, r30
 564:	ff 27       	eor	r31, r31
 566:	bb 27       	eor	r27, r27
 568:	00 24       	eor	r0, r0
 56a:	08 94       	sec
 56c:	67 95       	ror	r22
 56e:	20 f4       	brcc	.+8      	; 0x578 <__mulsf3_pse+0x26>
 570:	e2 0f       	add	r30, r18
 572:	f3 1f       	adc	r31, r19
 574:	b4 1f       	adc	r27, r20
 576:	0a 1e       	adc	r0, r26
 578:	22 0f       	add	r18, r18
 57a:	33 1f       	adc	r19, r19
 57c:	44 1f       	adc	r20, r20
 57e:	aa 1f       	adc	r26, r26
 580:	66 95       	lsr	r22
 582:	a9 f7       	brne	.-22     	; 0x56e <__mulsf3_pse+0x1c>
 584:	77 95       	ror	r23
 586:	30 f4       	brcc	.+12     	; 0x594 <__mulsf3_pse+0x42>
 588:	f3 0f       	add	r31, r19
 58a:	b4 1f       	adc	r27, r20
 58c:	0a 1e       	adc	r0, r26
 58e:	12 1e       	adc	r1, r18
 590:	08 f4       	brcc	.+2      	; 0x594 <__mulsf3_pse+0x42>
 592:	63 95       	inc	r22
 594:	33 0f       	add	r19, r19
 596:	44 1f       	adc	r20, r20
 598:	aa 1f       	adc	r26, r26
 59a:	22 1f       	adc	r18, r18
 59c:	76 95       	lsr	r23
 59e:	99 f7       	brne	.-26     	; 0x586 <__mulsf3_pse+0x34>
 5a0:	87 95       	ror	r24
 5a2:	20 f4       	brcc	.+8      	; 0x5ac <__mulsf3_pse+0x5a>
 5a4:	b4 0f       	add	r27, r20
 5a6:	0a 1e       	adc	r0, r26
 5a8:	12 1e       	adc	r1, r18
 5aa:	63 1f       	adc	r22, r19
 5ac:	44 0f       	add	r20, r20
 5ae:	aa 1f       	adc	r26, r26
 5b0:	22 1f       	adc	r18, r18
 5b2:	33 1f       	adc	r19, r19
 5b4:	86 95       	lsr	r24
 5b6:	a9 f7       	brne	.-22     	; 0x5a2 <__mulsf3_pse+0x50>
 5b8:	86 2f       	mov	r24, r22
 5ba:	71 2d       	mov	r23, r1
 5bc:	60 2d       	mov	r22, r0
 5be:	11 24       	eor	r1, r1
 5c0:	9f 57       	subi	r25, 0x7F	; 127
 5c2:	50 40       	sbci	r21, 0x00	; 0
 5c4:	8a f0       	brmi	.+34     	; 0x5e8 <__mulsf3_pse+0x96>
 5c6:	e1 f0       	breq	.+56     	; 0x600 <__mulsf3_pse+0xae>
 5c8:	88 23       	and	r24, r24
 5ca:	4a f0       	brmi	.+18     	; 0x5de <__mulsf3_pse+0x8c>
 5cc:	ee 0f       	add	r30, r30
 5ce:	ff 1f       	adc	r31, r31
 5d0:	bb 1f       	adc	r27, r27
 5d2:	66 1f       	adc	r22, r22
 5d4:	77 1f       	adc	r23, r23
 5d6:	88 1f       	adc	r24, r24
 5d8:	91 50       	subi	r25, 0x01	; 1
 5da:	50 40       	sbci	r21, 0x00	; 0
 5dc:	a9 f7       	brne	.-22     	; 0x5c8 <__mulsf3_pse+0x76>
 5de:	9e 3f       	cpi	r25, 0xFE	; 254
 5e0:	51 05       	cpc	r21, r1
 5e2:	70 f0       	brcs	.+28     	; 0x600 <__mulsf3_pse+0xae>
 5e4:	58 cf       	rjmp	.-336    	; 0x496 <__fp_inf>
 5e6:	a2 cf       	rjmp	.-188    	; 0x52c <__fp_szero>
 5e8:	5f 3f       	cpi	r21, 0xFF	; 255
 5ea:	ec f3       	brlt	.-6      	; 0x5e6 <__mulsf3_pse+0x94>
 5ec:	98 3e       	cpi	r25, 0xE8	; 232
 5ee:	dc f3       	brlt	.-10     	; 0x5e6 <__mulsf3_pse+0x94>
 5f0:	86 95       	lsr	r24
 5f2:	77 95       	ror	r23
 5f4:	67 95       	ror	r22
 5f6:	b7 95       	ror	r27
 5f8:	f7 95       	ror	r31
 5fa:	e7 95       	ror	r30
 5fc:	9f 5f       	subi	r25, 0xFF	; 255
 5fe:	c1 f7       	brne	.-16     	; 0x5f0 <__mulsf3_pse+0x9e>
 600:	fe 2b       	or	r31, r30
 602:	88 0f       	add	r24, r24
 604:	91 1d       	adc	r25, r1
 606:	96 95       	lsr	r25
 608:	87 95       	ror	r24
 60a:	97 f9       	bld	r25, 7
 60c:	08 95       	ret

0000060e <_exit>:
 60e:	f8 94       	cli

00000610 <__stop_program>:
 610:	ff cf       	rjmp	.-2      	; 0x610 <__stop_program>
