S01300004D503344616E6365426F742E7372656341
S113000012C021C020C01FC01EC01DC01CC01BC008
S11300101AC019C018C017C016C015C014C013C028
S11300208EC011C010C011241FBECFE5D2E0DEBFC8
S1130030CDBF20E0A0E6B0E001C01D92A736B20714
S1130040E1F74FD1E4C2DCCF1BBA8FEE8ABB18BAFA
S11300508FE787BB089585B3806E85BBAC9883B763
S1130060816083BF8FB581608FBD89B7816089BF8F
S11300701DBC80B7826880BF1CBC80B7816280BF12
S1130080C098C29AD898D99A0895682F70E080E0F1
S113009090E0C6D12DEC3CEC4CE45FE34DD220E083
S11300A030E04FE253E42AD18DD1862F0895CF93C7
S11300B0C62F87FF03C0D998D89A02C0D898D99A76
S11300C08F7711F0E2DF01C080E08CBDC7FF03C071
S11300D0C298C09A02C0C098C29A8C2F8F7711F030
S11300E0D4DF01C080E08DBDCF91089580FF02C0B0
S11300F0DA9A01C0DA9881FF02C0DB9A01C0DB986A
S113010082FF02C0DD9A01C0DD9883FF02C0DE9A3F
S113011001C0DE9884FF02C0C49A01C0C49885FF60
S113012002C0C69A01C0C69886FF02C0DF9A01C009
S1130130DF9887FF02C0C59A0895C59808951F9255
S11301400F920FB60F9211242F933F934F935F9307
S11301506F937F938F939F93AF93BF93EF93FF938B
S1130160AC9B02C0AC9801C0AC9A83B322B390E0BC
S1130170922B2091650030916600BC01621B730BC9
S113018090936600809365006E3A26E1720758F0FA
S11301901092640010926300109262001092610049
S11301A0109260008DC06D3A36E1730709F488C07F
S11301B080916400883108F083C090916000913090
S11301C041F120F0923009F44DC07AC0909163005F
S11301D068327D4058F041E050E0082E01C0440FE1
S11301E00A94EAF7492B409363000BC021E030E006
S11301F0082E01C0220F0A94EAF7209529232093A0
S113020063008F5F80936400883008F459C081E0F4
S113021026C0482F50E0909162004850510968323E
S11302207D4068F061E070E09B0102C0220F331F43
S11302304A95E2F7A901492B409362000AC021E0E4
S113024030E001C0220F4A95EAF720952923209334
S113025062008F5F80936400803190F182E080932C
S113026060002EC0482F50E0909161004051510928
S113027068327D4068F061E070E09B0102C0220FAB
S1130280331F4A95E2F7A901492B409361000AC044
S113029021E030E001C0220F4A95EAF72095292396
S11302A0209361008F5F80936400883149F48091CA
S11302B061001CDF6091620080916300F8DEA89504
S11302C0FF91EF91BF91AF919F918F917F916F912A
S11302D05F914F913F912F910F900FBE0F901F9000
S11302E01895B2DEB8DE9DE088E10FB6F894A895C3
S11302F081BD0FBE91BD7894FFCF5058BB27AA276C
S11303000ED0E0C0D1D030F0D6D020F031F49F3FF1
S113031011F41EF4C6C00EF4E095E7FBBCC0E92F4F
S1130320E2D080F3BA17620773078407950718F0C1
S113033071F49EF5FAC00EF4E0950B2EBA2FA02DA1
S11303400B01B90190010C01CA01A0011124FF277E
S1130350591B99F0593F50F4503E68F11A16F04079
S1130360A22F232F342F4427585FF3CF4695379578
S11303702795A795F0405395C9F77EF41F16BA0B3D
S1130380620B730B840BBAF09150A1F0FF0FBB1FEB
S1130390661F771F881FC2F70EC0BA0F621F731F34
S11303A0841F48F4879577956795B795F7959E3F91
S11303B008F0B3CF9395880F08F09927EE0F97951F
S11303C08795089598D088F09F5790F0B92F992772
S11303D0B751A0F0D1F0660F771F881F991F1AF04C
S11303E0BA95C9F712C0B13081F09FD0B1E0089539
S11303F09CC0672F782F8827B85F39F0B93FCCF3BA
S1130400869577956795B395D9F73EF49095809541
S1130410709561957F4F8F4F9F4F0895E89409C061
S113042097FB3EF490958095709561957F4F8F4F23
S11304309F4F9923A9F0F92F96E9BB279395F69539
S1130440879577956795B795F111F8CFFAF4BB0FB7
S113045011F460FF1BC06F5F7F4F8F4F9F4F16C01B
S1130460882311F096E911C0772321F09EE8872FA5
S1130470762F05C0662371F096E8862F70E060E061
S11304802AF09A95660F771F881FDAF7880F9695DA
S1130490879597F9089597F99F6780E870E060E081
S11304A008959FEF80EC089500240A941616170609
S11304B018060906089500240A9412161306140651
S11304C005060895092E0394000C11F4882352F0B4
S11304D0BB0F40F4BF2B11F460FF04C06F5F7F4F6C
S11304E08F4F9F4F089557FD9058440F551F59F053
S11304F05F3F71F04795880F97FB991F61F09F3F0D
S113050079F087950895121613061406551FF2CF35
S11305104695F1DF08C0161617061806991FF1CF85
S113052086957105610508940895E894BB276627AC
S11305307727CB0197F908950AD0C4CFB5DF28F007
S1130540BADF18F0952309F0A6CFABCFEFCFCBDFFE
S1130550A8F39923D9F35523C9F3950F50E0551FF8
S1130560AA27EE27FF27BB2700240894679520F4C9
S1130570E20FF31FB41F0A1E220F331F441FAA1FCA
S11305806695A9F7779530F4F30FB41F0A1E121E6F
S113059008F46395330F441FAA1F221F769599F719
S11305A0879520F4B40F0A1E121E631F440FAA1F5E
S11305B0221F331F8695A9F7862F712D602D1124D4
S11305C09F5750408AF0E1F088234AF0EE0FFF1F56
S11305D0BB1F661F771F881F91505040A9F79E3F8D
S11305E0510570F058CFA2CF5F3FECF3983EDCF397
S11305F0869577956795B795F795E7959F5FC1F7CA
S1130600FE2B880F911D9695879597F90895F89478
S1050610FFCF16
S9030000FC
